:020000040000FA
:0600000008EF06F01200FB
:020006000000F8
:0800080004011051600BE842F5
:10001000E842E842E842E842000901E055D01151C7
:10002000070A51E00B0A4FE0070A40E0010A2CE002
:100030000B0A28E0020A26E0030A22E0080A12E07E
:10004000010A0EE00F0A0AE0030A01E03CD00001B9
:10005000010E6B6F0001040E766F36D036D834D0A7
:1000600090D832D00001010E6B6F0001780E6C6FDA
:10007000000E6D6F000177930001010E706F24D0A8
:10008000A8D822D0F4D820D00001010E6B6F040153
:10009000145100016C6F6D6B790E6C27000E6D238F
:1000A000000177930001010E706F0ED00001010E68
:1000B0006B6F04011451EA6A790FE96E000EEA22AF
:1000C00012C4EFFF01D000D01200800E0401105DB9
:1000D00057E11351030A34E0010A10E0030A01E07A
:1000E0004DD00001010E6B6F00012A0E6C6F0A0EDD
:1000F0006D6F120E0001706F716B40D00001010E28
:100100006B6F04011251F66EF76AD890F636F73627
:10011000130EF6260B0EF7220900F5CF6CF00A003D
:10012000F5CF6DF0020E0001F76A6C25F66E6D5189
:10013000F7220900F5CF70F00A00F5CF71F01ED05C
:100140000001010E6B6F04011251F66EF76AD89030
:10015000F636F736170EF6260B0EF7220900F5CF06
:100160006CF00A00F5CF6DF06CC0F6FF6DC0F7FFC4
:100170000800F5500001706F716B00D000017783AB
:1001800012000001010E6B6F0F0EE66E710EE66E2F
:100190000F0EE66EAAEC03F0E552E552E552010EB1
:1001A000E66E790EE66E000EE66EAAEC03F0E552FE
:1001B000E552E55212C478F00401125104E1000145
:1001C000050E766F05D00001060E766F85EC04F003
:1001D00012000401186B196B040110511F0B020A65
:1001E00014E0030A0EE0010A01E033D00001010E21
:1001F0006B6F04011881000177A102D004011883FC
:1002000028D00001010E6B6F24D00001010E6B6F2E
:10021000040114510F0B080DF350036A000F026E16
:10022000040E03221451800B01E0010E040DF35063
:10023000000102246E6F000E03206F6F6EC0E9FF95
:100240006FC0EAFFEF50040B03E00401010E186FCA
:1002500000D000016B050AE10001180E6C6F040E5E
:100260006D6F000177930001020E706F12000401A0
:10027000120510E110511F0B00090CE10001010EE5
:100280006B6F030E0401115D03E10001778102D061
:1002900000017791040112513AE110511F0B02083D
:1002A00036E114510F0B000932E00001010E6B6FB3
:1002B000040114510F0B080DF350036A000F026E76
:1002C000040E03221451800B01E0010E040DF350C3
:1002D000000102246E6F000E03206F6F030E0401F5
:1002E000115D07E1840E6EC0E9FF6FC0EAFFEF6E9B
:1002F0000ED014AF06D06EC0E9FF6FC0EAFFEF6A00
:1003000006D0880E6EC0E9FF6FC0EAFFEF6E1200E4
:100310006C500BE1040100513C0BE842E8420D082F
:1003200002E108D801D03CD804D0040E6C5C01E195
:1003300047D81200D9CFE6FFE1CFD9FFE65200013E
:100340006A6B6B6B706B716B04EC00F0DF6ADF50F3
:10035000026E036A010E025C000E03581BE20001EC
:100360006B5101E017D0F76ADF34FE0BF736F66EFB
:100370001D0EF6260B0EF7220900F5CF02F008003D
:10038000F5CF03F004D003C0FAFF0250F96EFBDF93
:10039000DF2ADDD7DDD8E552E552E7CFD9FF1200DD
:1003A000020E00016A5D0AE196D8040100BD03D087
:1003B000C80E006F02D0880E006F01D00FD9120056
:1003C000040E0001765D0AE112C46EFF6E50000853
:1003D00003E2050E766F02D0030E766F00016A0508
:1003E0000AE10BD8040104BD03D0C80E046F02D08B
:1003F000880E046F01D0F2D81200D9CFE6FFE1CF0A
:10040000D9FF020EE1260001080E705D000E715941
:1004100005E270C0DEFF71C0DDFF03D0080EDE6EA6
:10042000DD6A040104930491010EDB500413DFCF55
:1004300005F4000EDB500001705F010EDB50715BB4
:10044000180E6E6F040E6F6F000177A31ED0D9CF08
:10045000E9FFDACFEAFFEE50ED1016E06CC0F6FFD0
:100460006DC0F7FF0800F5506EC0E9FF6FC0EAFFEE
:10047000EF6E00016E2B000E6F236C2B6D23DF06D9
:10048000010E01E2DB06E3D71CD0D9CFE9FFDACFBA
:10049000EAFFEE50ED1015E06CC0E9FF6DC0EAFF19
:1004A000EF506EC0E9FF6FC0EAFFEF6E00016E2BE8
:1004B000000E6F236C2B6D23DF06010E01E2DB06BD
:1004C000E4D7020EE15C02E2E16AE552E16EE55238
:1004D000E7CFD9FF1200D9CFE6FFE1CFD9FF020E57
:1004E000E126030E04010015E76E010EE7CFDBFFE6
:1004F00001C4DFFFDE5000017027DD507123180EAC
:100500006C6F040E6D6FD9CFE9FFDACFEAFFEE50C2
:10051000ED1014E06CC0E9FF6DC0EAFFEF506EC053
:10052000E9FF6FC0EAFFEF6E6E2B000E6F236C2B9E
:100530006D23DF06010E01E2DB06E5D7020EE15C6A
:1005400002E2E16AE552E16EE552E7CFD9FF12001F
:1005500000016B510CE10401080E016F100E026FD7
:10056000040E036F840E006F0401046F35D0040184
:1005700010AF22D0000170510401165D00017151CD
:100580000401175904E216C470F017C471F035DF86
:100590000001010E6A6F0401080E016F100E026F58
:1005A000040E036F800E006F0401180E066F040E18
:1005B000076FC80E046F10D00001020E6A6F0401AD
:1005C000056BC80E046F0401080E016F180E026F50
:1005D000040E036FC80E006F6D98120000016A6B65
:1005E0000401080E016F100E026F040E036F880ED7
:0805F000006F0401046B12000E
:0805F8006DA60FD802D06DB60C
:1006000013D80001760508E16DBA06D0686A696AF8
:1006100069806988020E766F12006D6A696A6D865C
:100620000001010E766F12006D6A696A0001766B37
:10063000120014EF03F00001765101E13AD0685046
:10064000040B04E06950040B01E041D86DB231D0D5
:100650006850010B04E06950010B01E059D8685063
:10066000100B04E06950100B01E024D86850400BD7
:1006700004E06950400B01E040D86850200B04E0D2
:100680006950200B01E03BD86850020B04E0695030
:10069000020B01E03BD8030E0001765D01E209D0B8
:1006A0006850080B06E06950080B03E088EC01F085
:1006B00068961200698468986D82A19AF290A08A67
:1006C000F2860300F2B007D8A09AF29612006D925B
:1006D000699468941200000177A10ED0F8DF6D8450
:1006E0000001080E7D6F070E7E6F7D07000E7E5B9A
:1006F0007D517E11FAE16D941200689C120070A089
:1007000003D0EEEC02F07090689A1200689212002A
:100710006A6A686A9F0E6B6E7B0E696E6E6A0F0E58
:10072000E66E710EE66E0F0EE66E14D8E552E552D7
:10073000E552160E706E68A602D06896FCD76D98CA
:10074000EEEC02F0000177910001786B0001030EDE
:10075000766F1200D9CFE6FFE1CFD9FFFD0EDBCFD8
:10076000E9FFFE0EDBCFEAFFFC0EDB5004E0EE6A91
:0E077000FC0EDB06F9D7E552E7CFD9FF1200E9
:02077E00010E6A
:10078000926E1200060E0001765D03E36D50020BBF
:1007900001E02DD080A014D00001726B736B746BDC
:1007A000756B04010CBF0BD0040EE66E720EE66E84
:1007B000000EE66E9AEC04F0E552E552E55217D0D1
:1007C00000019C0E726F960E736FF60E746F410EE1
:1007D000756F04010CBF0BD0040EE66E720EE66E50
:1007E000000EE66E9AEC04F0E552E552E552120076
:0207F0001200F5
:0608000008EF06F01200F3
:0A080600040110511F0B010801E06E
:1008100079D0145101E076D0060E115D2EE113510E
:10082000230A28E0010A13E0030A01E024D00001B2
:10083000020E6B6F0001780505E100014E0E6C6F32
:100840000A0E6D6F090E0001706F716B14D00001FC
:10085000020E6B6F0001780505E10001C40E6C6F9C
:100860000A0E6D6F0001780504E14F0E0001706FF4
:10087000716B01D000D00001778304011051600B2F
:10088000E842E842E842E842E842010801E03AD0A2
:1008900011510B0A31E0080A21E0090A19E0080A9F
:1008A00009E00B0A05E0080A01E02CD02CD82AD078
:1008B0002BD828D00001020E6B6F00017A0E6C6FEE
:1008C000000E6D6F000177930001010E706F1AD05A
:1008D0000001020E6B6F13C47AF014D00001020EF7
:1008E0006B6F00017B0E6C6F000E6D6F00017793D4
:1008F0000001010E706F06D00001020E6B6F12C472
:100900007BF000D012001200120000017C6B1E0E62
:10091000716E0401040E096F200E0A6F040E0B6F36
:10092000880E086F0401240E0E6F040E0F6F400E28
:100930000C6F1200D9CFE6FFE1CFD9FFE652FC0ED3
:10094000DB50040805E2040EF36EFC0EF3CFDBFF70
:10095000DF6AFC0EDB50DF5C19E2DF50E76EFD0E54
:10096000DBCFE9FFFE0EDBCFEAFFE750E926000E02
:10097000EA22EF50E66EDF50EA6A240FE96E040EB9
:10098000EA22E552E750EF6EDF2AE3D7FC0EDBCF19
:100990000DF4400E04010C170C7D880E0C13E5526B
:1009A000E552E7CFD9FF1200D9CFE6FFE1CFD9FF5B
:1009B00000017C6B040108BF31D0FC0EDBCF02F0DC
:1009C0000951D880025403E2FC0E09C4DBFF000188
:1009D0007C6BFC0EDB507C5D19E27C51EA6A200FD7
:1009E000E96E040EEA22EF50E66E7C51E76EFD0ED2
:1009F000DBCFE9FFFE0EDBCFEAFFE750E926000E72
:100A0000EA22E552E750EF6E7C2BE3D70401040E97
:100A1000096F400E0817087D880E081300017C51ED
:0A0A200000D0E552E7CFD9FF120025
:060A2A00120100020000B1
:100A30000008D804000001000102000109022200A0
:100A4000010100A032090400000103010200092194
:100A500001010001224F000705810304000A04037D
:100A6000090434034D006900630072006F006300E5
:100A70006800690070002000540065006300680091
:100A80006E006F006C006F00670079002000490065
:100A90006E0063002E002E034D006F007500730082
:100AA0006500200049006E00200061002000430026
:100AB0006900720063006C0065002000440065005E
:100AC0006D006F0005010904A101050209BB158134
:100AD000257F75089501810205010901A1000930F2
:100AE000093195028102C0093915002503350046F8
:100AF0000E0165145500750495018102050919015F
:100B0000290415002501350045019504750165008E
:0F0B10008102C03C0A3C0A5E0A620A960A060885
:100B2000060EF66E000EF76E000EF86E000109005C
:100B3000F550656F0900F550666F03E1656701D0F8
:100B40003DD00900F550606F0900F550616F090054
:100B5000F550626F09000900F550E96E0900F55083
:100B6000EA6E090009000900F550636F0900F550AD
:100B7000646F09000900F6CF67F0F7CF68F0F8CF8F
:100B800069F060C0F6FF61C0F7FF62C0F8FF0001C6
:100B9000635302E1645307E00900F550EE6E63070A
:100BA000F8E26407F9D767C0F6FF68C0F7FF69C0CD
:0E0BB000F8FF00016507000E665BBFD712005C
:020BBE0005D858
:100BC00010D8C2EC03F0FCD712000F0EC112140EA5
:100BD0006F6E0001766B0001776B0001786BBFEFE1
:100BE00003F0FCEC02F06FBE02D01BEC03F012002D
:100BF000000EF36E00EE00F0080E01D81200EA605D
:100C000002D0EE6AFCD7F350E9601200EE6AFCD71E
:100C100013EE00F023EE00F0F86A019C90EC05F072
:0C0C2000F8EC03F0DFEC05F0FBD712004D
:00000001FF
